:100000000C946D010C9495010C9495010C94950140
:100010000C9495010C9495010C9495010C94950108
:100020000C9495010C9495010C94B60A0C948209D9
:100030000C9495010C9495010C9495010C949501E8
:100040000C9495010C9495010C9495010C949501D8
:100050000C9495010C9495010C9495010C948104D9
:100060000C9495010C9495010C9495010C949501B8
:100070000C9495010C9495010C9495010C949501A8
:100080000C9495010C9495010C9495010C94950198
:100090000C9495010C9495010C9495010C94950188
:1000A0000C9495010C9495010C9495019B059E056B
:1000B0008D0591059705BF05BF05BF05A205A605DE
:1000C000AA05B005B405BF05BA0500000002000985
:1000D0000F0000030401000C0000000000000000FD
:1000E00000000000000000000408020110408040F1
:1000F000102040804080080204018040201002014E
:10010000108010204040040404040403040502028B
:1001100002020403020202020606060606060404A0
:1001200002020204000000002300260029002C0027
:100130002F0000000000250028002B002E003100B9
:1001400000000000240027002A002D003000080BCA
:100150000002020201000904000001020200000581
:1001600024001001052401010104240206052406CF
:1001700000010705810310004009040100020A0084
:10018000000007050202400000070583024000004E
:1001900000C18081C11201000202000040412337EA
:1001A0008000010102000112010002000000404134
:1001B00023378000010102000141726475696E6F8E
:1001C000204C4C430041726475696E6F204D696329
:1001D000726F000403090400000000000000002A00
:1001E0002B280000000000000000000000000000BC
:1001F000000000000000002C9EB4A0A1A2A434A620
:10020000A7A5AE362D3738271E1F202122232425EF
:1002100026B333B62EB7B89F8485868788898A8BA4
:100220008C8D8E8F909192939495969798999A9B96
:100230009C9D2F3130A3AD350405060708090A0B34
:100240000C0D0E0F101112131415161718191A1B76
:100250001C1DAFB1B0B5000904020001030000008D
:100260000921010100012265000705840340000106
:1002700005010902A1010901A10085010509190172
:100280002903150025019503750181029501750566
:10029000810305010930093109381581257F750869
:1002A00095038106C0C005010906A1018502050765
:1002B00019E029E7150025017501950881029501CE
:1002C0007508810395067508150025650507190051
:1002D00029658100C0001507770C11241FBECFEFE0
:1002E000DAE0DEBFCDBF11E0A0E0B1E0E2ECF9E181
:1002F00002C005900D92A234B107D9F722E0A2E422
:10030000B1E001C01D92A533B207E1F712E0CAEDDA
:10031000D2E004C02297FE010E94DB0CC63DD1074B
:10032000C9F70E942D0B0C94DF0C0C940000CF93A6
:10033000DF93EB011092710061E085E00E94C0053F
:1003400060E085E00E94F9059E01442737FD409555
:10035000542F60E47FE180E090E00E94BA0C82E0DC
:100360008093900081E180939100309397002093D7
:100370009600C90163E070E00E94840C70939900BC
:1003800060939800DF91CF9108958F929F92AF92E2
:10039000BF92CF92DF92EF92FF926A017B014530CC
:1003A00051056105710500F10E94D7044B015C0104
:1003B00084E0C81AD108E108F108C80CD91CEA1C6D
:1003C000FB1CC814D904EA04FB0438F40E94D704C7
:1003D00086169706A806B906C8F30E94D7046C15BE
:1003E0007D058E059F05C8F3FF90EF90DF90CF90BD
:1003F000BF90AF909F908F900895209190002068BB
:10040000209390006115710529F0AB0160E070E068
:100410000C94C5010895209190002F7720939000AF
:100420006115710529F0AB0160E070E00C94C50125
:100430000895CF92DF92EF92FF920F931F93CF9385
:10044000DF937C018B016A01B9010E949701E801E9
:1004500000E010E00C151D0571F068817981C7017D
:1004600000FF03C00E940B0202C00E94FD010F5F4B
:100470001F4F2296EFCF809190008F77809390004E
:10048000DF91CF911F910F91FF90EF90DF90CF9070
:100490000895962728E030E0AC01440F551F97FFE0
:1004A00006C0CA0161E2862760E1962701C0CA0141
:1004B0002150310989F708950F931F93CF93DF934C
:1004C0008B01EC01080F191F80E090E0C017D107E5
:1004D00021F069910E944902F9CFDF91CF911F91DC
:1004E0000F9108954F925F926F927F928F929F9299
:1004F000AF92BF92CF92DF92EF92FF920F931F9332
:10050000CF93DF93CDB7DEB72A970FB6F894DEBF4F
:100510000FBECDBF4B015C0188E7EEE4F1E0DF01E7
:100520001D928A95E9F710924D01C501B40120E4AE
:1005300032E44FE050E00E94980CAAE0CA2ED12C81
:10054000E12CF12CCA01B901A70196010E94980C77
:1005500000EF060FC501B40120EA36E841E050E0A3
:100560000E94980CCA01B901A70196010E94980C3B
:10057000762EC501B40120E137E240E050E00E9450
:10058000980CCA01B901A70196010E94980C162F78
:10059000B0E17B9E100D1124C501B40128EE33E0BB
:1005A00040E050E00E94980CCA01B901A7019601F1
:1005B0000E94980C662EC501B40124E630E040E0AC
:1005C00050E00E94980CCA01B901A70196010E944F
:1005D000980C762EE0E16E9E700C1124C501B401DA
:1005E000A70196010E94980CB62ECA01B901A70175
:1005F00096010E94980CFB2CF0E16F9FF00C1124E7
:10060000FF82788619870A8764E070E0CE0107963A
:100610000E945C020095098390959A8310951B8334
:1006200070947C82F094FD8280958E839E012C5F75
:100630003F4FAE014F5F5F4F80E090E0DC01880FDD
:10064000991FAA1FBB1F0196A11DB11DBA2FA92F6B
:10065000982F8827F90162919F01860F911DA11D96
:10066000B11D880F991FAA1FBB1F2417350739F723
:10067000FE0137962D5F3F4FC12CD12C7601CC0C5B
:10068000DD1CEE1CFF1C4FEFC41AD40AE40AF40A66
:10069000FE2CED2CDC2CCC244291C40ED11CE11C90
:1006A000F11CCC0CDD1CEE1CFF1CE217F30739F724
:1006B00000914D0110E0B12CAA24A3940097A1054C
:1006C000B10529F1412F50E060E070E02C013D01BF
:1006D000E1E04E225524662477244416550666062A
:1006E000770679F0E02FF0E0EE0FFF1FE25BFE4FA0
:1006F0002B2D30E0318320831A2511700F5FB12C30
:10070000DDCFB394B695A79597958795D7CF0093EE
:100710004D016CE071E08FEC91E00E947407209134
:100720004D01C114D104E104F10431F1812F90E0B5
:10073000A0E0B0E0B701A6014170552766277727F2
:10074000481759076A077B0789F0E22FF0E0EE0FA0
:10075000FF1FE25BFE4F8B2D90E0918380832F5F24
:1007600081E0111180E0182FB12CDBCFB394F69407
:10077000E794D794C794D5CF20934D0130E0EEE4B1
:10078000F1E080E090E0A8E1821793075CF46081DB
:100790007181A69FA001A79F500D112441935193F1
:1007A0000196F2CF2A960FB6F894DEBF0FBECDBFEA
:1007B000DF91CF911F910F91FF90EF90DF90CF903D
:1007C000BF90AF909F908F907F906F905F904F9071
:1007D000089560E08EE00E94C00561E08EE00E9416
:1007E000F90561E08FE00E94C00560E08FE00E94A3
:1007F000F9058EE00E942F06892B89F088EC90E0A5
:10080000A0E0B0E08093460190934701A093480197
:10081000B09349016CE375EF82E190E010C088EE7F
:1008200093E0A0E0B0E08093460190934701A0934D
:100830004801B093490162E772ED87E890E00E94B9
:10084000720261E081E10C94C005CF92DF92EF92D9
:10085000FF920F931F93209100013091010140916D
:100860004D0150E06EE471E08CE491E00E941902C9
:1008700080ED97E00E9422050E94CB040091420186
:100880001091430120914401309145016B017C019D
:10089000C01AD10AE20AF30A0091460110914701F9
:1008A0002091480130914901C016D106E206F306B5
:1008B000F0F0609342017093430180934401909360
:1008C000450180914A0190914B01892B39F481E0D7
:1008D00090E090934B0180934A0104C010924B0129
:1008E00010924A0160914A0181E10E94F90588E075
:1008F00097E01F910F91FF90EF90DF90CF900C94B5
:1009000022051F920F920FB60F9211242F933F933F
:100910008F939F93AF93BF938091C7019091C8012C
:10092000A091C901B091CA013091C60123E0230F03
:100930002D3720F40196A11DB11D05C026E8230F17
:100940000296A11DB11D2093C6018093C70190930B
:10095000C801A093C901B093CA018091CB019091C5
:10096000CC01A091CD01B091CE010196A11DB11D88
:100970008093CB019093CC01A093CD01B093CE0195
:10098000BF91AF919F918F913F912F910F900FBE8B
:100990000F901F9018952FB7F8946091C701709130
:1009A000C8018091C9019091CA012FBF08953FB736
:1009B000F8948091CB019091CC01A091CD01B091A0
:1009C000CE0126B5A89B05C02F3F19F00196A11DA9
:1009D000B11D3FBF6627782F892F9A2F620F711D97
:1009E000811D911D42E0660F771F881F991F4A9550
:1009F000D1F70895CF92DF92EF92FF92CF93DF93DA
:100A00006B017C010E94D704EB01C114D104E10405
:100A1000F10489F00E94400B0E94D7046C1B7D0BEF
:100A2000683E734090F381E0C81AD108E108F108EC
:100A3000C851DC4FEACFDF91CF91FF90EF90DF906C
:100A4000CF9008958230910538F0880F991F880F54
:100A5000991F05970197F1F70895789484B58260FE
:100A600084BD84B5816084BD85B5826085BD85B552
:100A7000816085BDEEE6F0E0808181608083E1E801
:100A8000F0E0108280818260808380818160808339
:100A9000E0E8F0E0808181608083E1E9F0E080813E
:100AA00082608083808181608083E0E9F0E08081E2
:100AB00081608083E1ECF0E08081846080838081CC
:100AC00082608083808181608083E3ECF0E08081BC
:100AD00081608083E0ECF0E0808182608083E2ECE2
:100AE000F0E0808181608083EAE7F0E080818460CB
:100AF0008083808182608083808181608083808127
:100B000080688083089590E0FC013197EF30F10513
:100B1000B0F5EA5AFF4F0C94D90C809180008F7782
:100B200003C0809180008F7D809380000895809124
:100B30008000877FF9CF84B58F7702C084B58F7D21
:100B400084BD0895809190008F7707C080919000B8
:100B50008F7D03C080919000877F809390000895DF
:100B60008091C0008F7703C08091C0008F7D8093FB
:100B7000C00008958091C200877F8093C2000895CD
:100B8000CF93DF9390E0FC01E851FF4F2491FC01EB
:100B9000EA5FFE4F8491882349F190E0880F991F06
:100BA000FC01E05CFE4FA591B4918E5C9E4FFC0170
:100BB000C591D4919FB7611108C0F8948C9120958C
:100BC00082238C93888182230AC0623051F4F89486
:100BD0008C91322F309583238C938881822B88834C
:100BE00004C0F8948C91822B8C939FBFDF91CF919E
:100BF00008950F931F93CF93DF931F92CDB7DEB766
:100C0000282F30E0F901E653FF4F8491F901E851B4
:100C1000FF4F1491F901EA5FFE4F04910023C9F0E0
:100C2000882321F069830E9483056981E02FF0E029
:100C3000EE0FFF1FEE5CFE4FA591B4919FB7F894A5
:100C40008C91611103C01095812301C0812B8C937D
:100C50009FBF0F90DF91CF911F910F910895CF9378
:100C6000DF93282F30E0F901E653FF4F8491F9011B
:100C7000E851FF4FD491F901EA5FFE4FC491CC23B4
:100C800091F081110E948305EC2FF0E0EE0FFF1F21
:100C9000EC5DFE4FA591B4912C912D2381E090E065
:100CA00021F480E002C080E090E0DF91CF910895D0
:100CB000CF93DF931F92CDB7DEB76983DC01ED914F
:100CC000FC910280F381E02D41E050E0BE016F5FB6
:100CD0007F4F09950F90DF91CF910895CF93DF93C8
:100CE000EC018C859D8597FF05C082E00E94570826
:100CF0009D878C878C859D85DF91CF91089583E0BA
:100D00000C94AC0AFC018485958597FD06C082E0B1
:100D10000E94FF0790E00196089582E00E94FF077D
:100D200090E00895FC018485958597FD05C02FEF1F
:100D30003FEF35872487089582E00C945708CF93BE
:100D4000DF93EC0180910901882331F083E00E9458
:100D500088081816190634F081E090E09B838A8396
:100D600080E090E0DF91CF910895FC0120812E5F1B
:100D7000208342E450E06EE471E080E80C942309A3
:100D8000FC0181819081913A59F4813209F03CC093
:100D900047E050E062E071E080E00E94230943C038
:100DA000913291F5803239F467E070E082E091E0B1
:100DB0000E94540906C0823209F035C082818093B6
:100DC00009018091020190910301A0910401B09169
:100DD0000501803B9440A105B105C1F48091090152
:100DE00080FD14C087E797E790930108809300087F
:100DF0002BE088E190E00FB6F894A895809360000E
:100E00000FBE209360000FC080E0089588E10FB608
:100E1000F89480936000109260000FBEA895109225
:100E200001081092000881E008951092D2011092FA
:100E3000D10188EE93E0A0E0B0E08093D3019093DD
:100E4000D401A093D501B093D60186E191E09093AF
:100E5000D0018093CF018FEF9FEF9093DC018093BF
:100E6000DB010895CF92DF92EF92FF920F931F93D1
:100E7000CF93DF936C017A01EB01E60EF71E00E0E1
:100E800010E0CE15DF0561F06991D601ED91FC917E
:100E90000190F081E02DC6010995080F191FF1CFCF
:100EA000C801DF91CF911F910F91FF90EF90DF90DC
:100EB000CF9008956115710581F0DB010D90002040
:100EC000E9F7AD0141505109461B570BDC01ED918B
:100ED000FC910280F381E02D099480E090E0089578
:100EE00062E271E00C945A070F931F93CF93DF9344
:100EF000EC010E945A078C01CE010E947007800FFE
:100F0000911FDF91CF911F910F910895409123027E
:100F1000509124022091210230912202421753075E
:100F2000B4F49091E8009570E1F39091E80092FD9F
:100F300019C08093F10080912302909124020196C0
:100F40008F739927892B19F48EEF8093E800809195
:100F5000230290912402019690932402809323020D
:100F600081E0089580E00895CF92DF92FF920F9381
:100F70001F93CF93DF931F92CDB7DEB7082F162FA5
:100F8000862F880F8E5F99830E94860783E00E94D8
:100F90008607F02EC02E9981D92E8C2D8F1981179E
:100FA00078F4F60184910E948607082F80E00E9461
:100FB00086078023FFEFCF1ADF0A8111EECF01C031
:100FC00081E00F90DF91CF911F910F91FF90DF9003
:100FD000CF900895615030F02091F100FC01208302
:100FE0000196F8CF289A84E68093260208952FB7B9
:100FF000FC012083F89467706093E9000895CF9313
:10100000DF931F92CDB7DEB7682FCE0101960E9405
:10101000F7078091F20099819FBF0F90DF91CF91E8
:101020000895FF920F931F93CF93DF9300D0CDB716
:10103000DEB7F62E8A0190912502992311F057FF11
:1010400003C08FEF9FEF2BC0682FCE0101967A83EC
:101050000E94F7078091F20090E0A8017A81801742
:1010600091070CF4AC01EF2DF72FF40E84E6FE1679
:1010700039F0289A809326029091F1009193F7CF4E
:101080004115510521F08091F200882321F08981DA
:101090008FBFCA0104C08BE68093E800F8CF0F90A1
:1010A0000F90DF91CF911F910F91FF900895CF93F3
:1010B000DF931F92CDB7DEB741E050E0BE016F5F16
:1010C0007F4F0E941108019719F4898190E002C0B6
:1010D0008FEF9FEF0F90DF91CF910895CF93DF9324
:1010E0001F92CDB7DEB7682FCE0101960E94F70799
:1010F0009091E800892F807295FF04C09091F200D2
:1011000080E4891B99819FBF0F90DF91CF91089553
:101110006F927F928F929F92AF92BF92CF92DF9207
:10112000EF92FF920F931F93CF93DF931F92CDB750
:10113000DEB7782E7B01C42EB52E80912502882340
:1011400069F0042F152F8AEFD82E872D8072982EE4
:101150009AE3A92E872D8074882E11C08FEF9FEF00
:1011600057C0872D0E946E08682E81110CC0DA943A
:10117000A9F361E070E080E090E00E94FA040115BC
:10118000110579F73BC0282F30E0021713070CF444
:10119000602E672DCE0101960E94F7078091E8002E
:1011A00085FF29C0262D30E0021B130B992039F052
:1011B0006A948FEF6816B1F01092F100F9CFF70141
:1011C000862D77FE07C0815058F094919093F100DE
:1011D0003196F9CF815020F091919093F100FACFA0
:1011E000E20EF31E8091E80085FF0FC00115110586
:1011F00011F481100AC089818FBFC1CF5D9A84E646
:10120000809327028C2D9B2D03C0A092E800F3CF82
:101210000F90DF91CF911F910F91FF90EF90DF9092
:10122000CF90BF90AF909F908F907F906F900895D8
:101230001092E9001092240210922302909322024D
:10124000809321020895CF92DF92FF920F931F9314
:10125000CF93DF9300D0CDB7DEB7F82E8A016B01B4
:1012600001151105B1F0F601F7FE02C0849101C02D
:10127000808149835A830E94860701501109FFEF3C
:10128000CF1ADF0A49815A818111EACF8FEF9FEF90
:1012900001C0CA010F900F90DF91CF911F910F9164
:1012A000FF90DF90CF9008951F93CF93DF931F920D
:1012B000CDB7DEB7162F2091E80022FFFCCF612FBB
:1012C00079830E94EA078BEF8093E800812F798170
:1012D000972F0F90DF91CF911F910895CF93DF93B8
:1012E0001F92CDB7DEB71982CE0101960E94B506D6
:1012F000CE0101960E945F0B898190E00F90DF91F3
:10130000CF9108951F920F920FB60F921124EF9272
:10131000FF920F931F932F933F934F935F936F937E
:101320007F938F939F93AF93BF93EF93FF93CF934D
:10133000DF93CDB7DEB76297DEBFCDBF1092E90075
:101340008091E80083FFEBC068E0CE010A960E941E
:10135000EA0782EF8093E8009A8597FF05C08091A5
:10136000E80080FFFCCF03C08EEF8093E800892F58
:10137000807609F0B9C08B85811105C01092F1000B
:101380001092F100C5C0282F2D7F213009F4C0C074
:10139000853049F48091E80080FFFCCF8C8580681F
:1013A0008093E300B5C0863009F076C02D85E888CB
:1013B000F988223071F580E090E02A8B0E941809AC
:1013C0000E946E0999E08E010F5F1F4FF801392FBF
:1013D00011923A95E9F799832A892A8391E09E83AD
:1013E00090E898879AEF9987209123023091240200
:1013F000275F3F4F3C832B838D83C7010E941809D1
:1014000049E050E0B80180E00E9423090E946E0983
:101410007FC0C7012A8B0E9418092A89223241F411
:1014200082E290E00E946A0B892B09F071C074C0BF
:10143000213069F488899989089711F42093200252
:1014400080912002811118C067EA71E01AC0233030
:1014500009F062C08C85882391F0823021F46DE020
:1014600085EC91E006C0813009F056C06BE089EB55
:1014700091E00E94B4074AC065E971E002C063EDE3
:1014800071E06115710509F447C0FB01449150E01A
:1014900080E80E9423093CC0873009F43DC08830B1
:1014A00021F481E08093F10033C0893089F5937095
:1014B00099F5E1E9F1E081E021E096E38093E9002C
:1014C0002093EB0034913093EC009093ED008F5F0C
:1014D0003196853099F78EE78093EA001092EA0002
:1014E0008C858093250214C0888999890E941809E7
:1014F0008E85811105C0CE010A960E94C00606C0E5
:10150000823051F4CE010A960E94920B882321F07A
:101510008EEF8093E80003C081E28093EB00629637
:101520000FB6F894DEBF0FBECDBFDF91CF91FF9114
:10153000EF91BF91AF919F918F917F916F915F914B
:101540004F913F912F911F910F91FF90EF900F902E
:101550000FBE0F901F9018958093E9008091F200C4
:10156000882319F08AE38093E80008951F920F9270
:101570000FB60F9211242F933F934F935F936F9366
:101580007F938F939F93AF93BF93EF93FF9380913C
:10159000E1001092E10083FF0FC01092E90091E09A
:1015A0009093EB001092EC0092E39093ED00109278
:1015B000250298E09093F00082FF1DC083E00E9416
:1015C000AC0A80912702882339F08091270281504C
:1015D00080932702882369F080912602882359F09E
:1015E00080912602815080932602811104C02898A0
:1015F00002C05D98F1CFFF91EF91BF91AF919F91A4
:101600008F917F916F915F914F913F912F910F90AB
:101610000FBE0F901F9018951092250281E08093C5
:10162000D70080EA8093D80082E189BD09B400FE2A
:10163000FDCF61E070E080E090E00E94FA0480E974
:101640008093D8008CE08093E2001092E000559ADD
:10165000209A5D982898089508950E942D050E946B
:101660002C0B8FE192E00E940C0B0E94E903C0E07A
:10167000D0E00E9425042097E1F30E940000F9CFFA
:101680000895FF920F931F93CF93DF93EC01F62EF3
:10169000E881F9810480F581E02D09958C01E881CC
:1016A000F9810680F781E02D6F2DCE010995C801E3
:1016B0009927DF91CF911F910F91FF900895FC0121
:1016C00020812F5F208349E150E067E572E080E8E8
:1016D0000C94230945E650E060E772E080E80C9442
:1016E0002309EF92FF920F931F93CF93DF931F92E3
:1016F000CDB7DEB789838B017A0141E050E0BE01AE
:101700006F5F7F4F84E00E948808A701B80184E4DE
:101710000E9488080F90DF91CF911F910F91FF9049
:10172000EF900895FC0191818081813A31F481E04C
:10173000913091F0933089F411C0813271F49B3073
:1017400021F4828180930B0105C09A3031F48281AB
:1017500080930A0181E00895089580E0089548E0AB
:1017600050E082E00C94710BCF93DF93DC0168387A
:1017700018F0E8E7E60F25C0E62FF0E067FF11C09C
:10178000E058F10981E090E001C0880FEA95EAF79E
:1017900014969C911497982B14969C931497E0E0C0
:1017A00010C0E952FE4FE491EE2309F440C0E7FF78
:1017B00008C014968C911497826014968C93149799
:1017C000EF7716968C9116978E1741F117968C919C
:1017D00017978E1719F118968C9118978E17F1F0AC
:1017E00019968C9119978E17C9F01A968C911A97A1
:1017F0008E17A1F01B968C911B978E1779F080E0C5
:1018000090E0ED01C80FD91F2E81211102C0EE8397
:1018100005C0019686309105A1F709C0BD016C5F36
:101820007F4FCD010E94AF0B81E090E008C081E0C6
:1018300090E013969C938E93129780E090E0DF9156
:10184000CF910895683818F0E8E7E60F25C0E62F35
:10185000F0E067FF12C0E058F10921E030E001C07C
:10186000220FEA95EAF72095DC0114963C91149733
:10187000322314963C93E0E00FC0E952FE4FE4910E
:10188000EE2329F1E7FF08C0DC0114962C91149790
:101890002D7F14962C93EF7720E030E0EE2351F06B
:1018A000DC01A20FB31F16964C9116974E1302C07F
:1018B00016961C922F5F3F4F2630310579F7BC01F9
:1018C0006C5F7F4F0E94AF0B81E090E0089580E055
:1018D00090E00895FC011682178210861186128608
:1018E00013861482BC016C5F7F4F0C94AF0B109277
:1018F000340210922B0210922A0287E391E0909317
:101900002902809328020895AA1BBB1B51E107C03E
:10191000AA1FBB1FA617B70710F0A61BB70B881F7F
:10192000991F5A95A9F780959095BC01CD0108950E
:10193000A1E21A2EAA1BBB1BFD010DC0AA1FBB1FD3
:10194000EE1FFF1FA217B307E407F50720F0A21B45
:10195000B30BE40BF50B661F771F881F991F1A94B2
:1019600069F760957095809590959B01AC01BD01DC
:10197000CF010895052E97FB1EF400940E94D10C10
:1019800057FD07D00E94980C07FC03D04EF40C942E
:10199000D10C50954095309521953F4F4F4F5F4F5B
:1019A000089590958095709561957F4F8F4F9F4FCB
:1019B0000895EE0FFF1F0590F491E02D0994F8941F
:0219C000FFCF57
:1019C200C70100E100000000000001012D2D2D2DB6
:1019D2002D000000000058069F06820692066E0641
:1019E2007F060D0A006E616E00696E66006F766694
:1019F200002E0000000000410B3207B40B220C6ADB
:021A02000C00D6
:00000001FF
